{
  "_format": "hh-sol-artifact-1",
  "contractName": "StockNFT",
  "sourceName": "contracts/StockNFT.sol",
  "abi": [
    {
      "inputs": [],
      "stateMutability": "nonpayable",
      "type": "constructor"
    },
    {
      "inputs": [
        {
          "internalType": "address",
          "name": "sender",
          "type": "address"
        },
        {
          "internalType": "uint256",
          "name": "tokenId",
          "type": "uint256"
        },
        {
          "internalType": "address",
          "name": "owner",
          "type": "address"
        }
      ],
      "name": "ERC721IncorrectOwner",
      "type": "error"
    },
    {
      "inputs": [
        {
          "internalType": "address",
          "name": "operator",
          "type": "address"
        },
        {
          "internalType": "uint256",
          "name": "tokenId",
          "type": "uint256"
        }
      ],
      "name": "ERC721InsufficientApproval",
      "type": "error"
    },
    {
      "inputs": [
        {
          "internalType": "address",
          "name": "approver",
          "type": "address"
        }
      ],
      "name": "ERC721InvalidApprover",
      "type": "error"
    },
    {
      "inputs": [
        {
          "internalType": "address",
          "name": "operator",
          "type": "address"
        }
      ],
      "name": "ERC721InvalidOperator",
      "type": "error"
    },
    {
      "inputs": [
        {
          "internalType": "address",
          "name": "owner",
          "type": "address"
        }
      ],
      "name": "ERC721InvalidOwner",
      "type": "error"
    },
    {
      "inputs": [
        {
          "internalType": "address",
          "name": "receiver",
          "type": "address"
        }
      ],
      "name": "ERC721InvalidReceiver",
      "type": "error"
    },
    {
      "inputs": [
        {
          "internalType": "address",
          "name": "sender",
          "type": "address"
        }
      ],
      "name": "ERC721InvalidSender",
      "type": "error"
    },
    {
      "inputs": [
        {
          "internalType": "uint256",
          "name": "tokenId",
          "type": "uint256"
        }
      ],
      "name": "ERC721NonexistentToken",
      "type": "error"
    },
    {
      "anonymous": false,
      "inputs": [
        {
          "indexed": true,
          "internalType": "address",
          "name": "owner",
          "type": "address"
        },
        {
          "indexed": true,
          "internalType": "address",
          "name": "approved",
          "type": "address"
        },
        {
          "indexed": true,
          "internalType": "uint256",
          "name": "tokenId",
          "type": "uint256"
        }
      ],
      "name": "Approval",
      "type": "event"
    },
    {
      "anonymous": false,
      "inputs": [
        {
          "indexed": true,
          "internalType": "address",
          "name": "owner",
          "type": "address"
        },
        {
          "indexed": true,
          "internalType": "address",
          "name": "operator",
          "type": "address"
        },
        {
          "indexed": false,
          "internalType": "bool",
          "name": "approved",
          "type": "bool"
        }
      ],
      "name": "ApprovalForAll",
      "type": "event"
    },
    {
      "anonymous": false,
      "inputs": [
        {
          "indexed": false,
          "internalType": "uint256",
          "name": "_fromTokenId",
          "type": "uint256"
        },
        {
          "indexed": false,
          "internalType": "uint256",
          "name": "_toTokenId",
          "type": "uint256"
        }
      ],
      "name": "BatchMetadataUpdate",
      "type": "event"
    },
    {
      "anonymous": false,
      "inputs": [
        {
          "indexed": false,
          "internalType": "uint256",
          "name": "_tokenId",
          "type": "uint256"
        }
      ],
      "name": "MetadataUpdate",
      "type": "event"
    },
    {
      "anonymous": false,
      "inputs": [
        {
          "indexed": true,
          "internalType": "address",
          "name": "from",
          "type": "address"
        },
        {
          "indexed": true,
          "internalType": "address",
          "name": "to",
          "type": "address"
        },
        {
          "indexed": true,
          "internalType": "uint256",
          "name": "tokenId",
          "type": "uint256"
        }
      ],
      "name": "Transfer",
      "type": "event"
    },
    {
      "inputs": [],
      "name": "admin",
      "outputs": [
        {
          "internalType": "address",
          "name": "",
          "type": "address"
        }
      ],
      "stateMutability": "view",
      "type": "function"
    },
    {
      "inputs": [
        {
          "internalType": "address",
          "name": "to",
          "type": "address"
        },
        {
          "internalType": "uint256",
          "name": "tokenId",
          "type": "uint256"
        }
      ],
      "name": "approve",
      "outputs": [],
      "stateMutability": "nonpayable",
      "type": "function"
    },
    {
      "inputs": [
        {
          "internalType": "address",
          "name": "owner",
          "type": "address"
        }
      ],
      "name": "balanceOf",
      "outputs": [
        {
          "internalType": "uint256",
          "name": "",
          "type": "uint256"
        }
      ],
      "stateMutability": "view",
      "type": "function"
    },
    {
      "inputs": [
        {
          "internalType": "uint256",
          "name": "tokenId",
          "type": "uint256"
        }
      ],
      "name": "getApproved",
      "outputs": [
        {
          "internalType": "address",
          "name": "",
          "type": "address"
        }
      ],
      "stateMutability": "view",
      "type": "function"
    },
    {
      "inputs": [
        {
          "internalType": "address",
          "name": "owner",
          "type": "address"
        },
        {
          "internalType": "address",
          "name": "operator",
          "type": "address"
        }
      ],
      "name": "isApprovedForAll",
      "outputs": [
        {
          "internalType": "bool",
          "name": "",
          "type": "bool"
        }
      ],
      "stateMutability": "view",
      "type": "function"
    },
    {
      "inputs": [
        {
          "internalType": "address",
          "name": "to",
          "type": "address"
        },
        {
          "internalType": "string",
          "name": "uri",
          "type": "string"
        }
      ],
      "name": "miFnt",
      "outputs": [],
      "stateMutability": "nonpayable",
      "type": "function"
    },
    {
      "inputs": [],
      "name": "name",
      "outputs": [
        {
          "internalType": "string",
          "name": "",
          "type": "string"
        }
      ],
      "stateMutability": "view",
      "type": "function"
    },
    {
      "inputs": [],
      "name": "nextTokenId",
      "outputs": [
        {
          "internalType": "uint256",
          "name": "",
          "type": "uint256"
        }
      ],
      "stateMutability": "view",
      "type": "function"
    },
    {
      "inputs": [
        {
          "internalType": "uint256",
          "name": "tokenId",
          "type": "uint256"
        }
      ],
      "name": "ownerOf",
      "outputs": [
        {
          "internalType": "address",
          "name": "",
          "type": "address"
        }
      ],
      "stateMutability": "view",
      "type": "function"
    },
    {
      "inputs": [
        {
          "internalType": "address",
          "name": "from",
          "type": "address"
        },
        {
          "internalType": "address",
          "name": "to",
          "type": "address"
        },
        {
          "internalType": "uint256",
          "name": "tokenId",
          "type": "uint256"
        }
      ],
      "name": "safeTransferFrom",
      "outputs": [],
      "stateMutability": "nonpayable",
      "type": "function"
    },
    {
      "inputs": [
        {
          "internalType": "address",
          "name": "from",
          "type": "address"
        },
        {
          "internalType": "address",
          "name": "to",
          "type": "address"
        },
        {
          "internalType": "uint256",
          "name": "tokenId",
          "type": "uint256"
        },
        {
          "internalType": "bytes",
          "name": "data",
          "type": "bytes"
        }
      ],
      "name": "safeTransferFrom",
      "outputs": [],
      "stateMutability": "nonpayable",
      "type": "function"
    },
    {
      "inputs": [
        {
          "internalType": "address",
          "name": "operator",
          "type": "address"
        },
        {
          "internalType": "bool",
          "name": "approved",
          "type": "bool"
        }
      ],
      "name": "setApprovalForAll",
      "outputs": [],
      "stateMutability": "nonpayable",
      "type": "function"
    },
    {
      "inputs": [
        {
          "internalType": "bytes4",
          "name": "interfaceId",
          "type": "bytes4"
        }
      ],
      "name": "supportsInterface",
      "outputs": [
        {
          "internalType": "bool",
          "name": "",
          "type": "bool"
        }
      ],
      "stateMutability": "view",
      "type": "function"
    },
    {
      "inputs": [],
      "name": "symbol",
      "outputs": [
        {
          "internalType": "string",
          "name": "",
          "type": "string"
        }
      ],
      "stateMutability": "view",
      "type": "function"
    },
    {
      "inputs": [
        {
          "internalType": "uint256",
          "name": "tokenId",
          "type": "uint256"
        }
      ],
      "name": "tokenURI",
      "outputs": [
        {
          "internalType": "string",
          "name": "",
          "type": "string"
        }
      ],
      "stateMutability": "view",
      "type": "function"
    },
    {
      "inputs": [
        {
          "internalType": "address",
          "name": "from",
          "type": "address"
        },
        {
          "internalType": "address",
          "name": "to",
          "type": "address"
        },
        {
          "internalType": "uint256",
          "name": "tokenId",
          "type": "uint256"
        }
      ],
      "name": "transferFrom",
      "outputs": [],
      "stateMutability": "nonpayable",
      "type": "function"
    }
  ],
  "bytecode": "0x608060405234801561001057600080fd5b506040518060400160405280600881526020017f53746f636b4e46540000000000000000000000000000000000000000000000008152506040518060400160405280600481526020017f534e465400000000000000000000000000000000000000000000000000000000815250816000908161008c9190610335565b50806001908161009c9190610335565b50505033600860006101000a81548173ffffffffffffffffffffffffffffffffffffffff021916908373ffffffffffffffffffffffffffffffffffffffff160217905550610407565b600081519050919050565b7f4e487b7100000000000000000000000000000000000000000000000000000000600052604160045260246000fd5b7f4e487b7100000000000000000000000000000000000000000000000000000000600052602260045260246000fd5b6000600282049050600182168061016657607f821691505b6020821081036101795761017861011f565b5b50919050565b60008190508160005260206000209050919050565b60006020601f8301049050919050565b600082821b905092915050565b6000600883026101e17fffffffffffffffffffffffffffffffffffffffffffffffffffffffffffffffff826101a4565b6101eb86836101a4565b95508019841693508086168417925050509392505050565b6000819050919050565b6000819050919050565b600061023261022d61022884610203565b61020d565b610203565b9050919050565b6000819050919050565b61024c83610217565b61026061025882610239565b8484546101b1565b825550505050565b600090565b610275610268565b610280818484610243565b505050565b5b818110156102a45761029960008261026d565b600181019050610286565b5050565b601f8211156102e9576102ba8161017f565b6102c384610194565b810160208510156102d2578190505b6102e66102de85610194565b830182610285565b50505b505050565b600082821c905092915050565b600061030c600019846008026102ee565b1980831691505092915050565b600061032583836102fb565b9150826002028217905092915050565b61033e826100e5565b67ffffffffffffffff811115610357576103566100f0565b5b610361825461014e565b61036c8282856102a8565b600060209050601f83116001811461039f576000841561038d578287015190505b6103978582610319565b8655506103ff565b601f1984166103ad8661017f565b60005b828110156103d5578489015182556001820191506020850194506020810190506103b0565b868310156103f257848901516103ee601f8916826102fb565b8355505b6001600288020188555050505b505050505050565b612560806104166000396000f3fe608060405234801561001057600080fd5b50600436106101005760003560e01c806375794a3c11610097578063b88d4fde11610066578063b88d4fde146102ab578063c87b56dd146102c7578063e985e9c5146102f7578063f851a4401461032757610100565b806375794a3c1461023757806395d89b4114610255578063a22cb46514610273578063ab2307301461028f57610100565b806323b872dd116100d357806323b872dd1461019f57806342842e0e146101bb5780636352211e146101d757806370a082311461020757610100565b806301ffc9a71461010557806306fdde0314610135578063081812fc14610153578063095ea7b314610183575b600080fd5b61011f600480360381019061011a919061194c565b610345565b60405161012c9190611994565b60405180910390f35b61013d6103a6565b60405161014a9190611a3f565b60405180910390f35b61016d60048036038101906101689190611a97565b610438565b60405161017a9190611b05565b60405180910390f35b61019d60048036038101906101989190611b4c565b610454565b005b6101b960048036038101906101b49190611b8c565b61046a565b005b6101d560048036038101906101d09190611b8c565b61056c565b005b6101f160048036038101906101ec9190611a97565b61058c565b6040516101fe9190611b05565b60405180910390f35b610221600480360381019061021c9190611bdf565b61059e565b60405161022e9190611c1b565b60405180910390f35b61023f610658565b60405161024c9190611c1b565b60405180910390f35b61025d61065e565b60405161026a9190611a3f565b60405180910390f35b61028d60048036038101906102889190611c62565b6106f0565b005b6102a960048036038101906102a49190611dd7565b610706565b005b6102c560048036038101906102c09190611ed4565b6107ca565b005b6102e160048036038101906102dc9190611a97565b6107ef565b6040516102ee9190611a3f565b60405180910390f35b610311600480360381019061030c9190611f57565b610902565b60405161031e9190611994565b60405180910390f35b61032f610996565b60405161033c9190611b05565b60405180910390f35b6000634906490660e01b7bffffffffffffffffffffffffffffffffffffffffffffffffffffffff1916827bffffffffffffffffffffffffffffffffffffffffffffffffffffffff1916148061039f575061039e826109bc565b5b9050919050565b6060600080546103b590611fc6565b80601f01602080910402602001604051908101604052809291908181526020018280546103e190611fc6565b801561042e5780601f106104035761010080835404028352916020019161042e565b820191906000526020600020905b81548152906001019060200180831161041157829003601f168201915b5050505050905090565b600061044382610a9e565b5061044d82610b26565b9050919050565b6104668282610461610b63565b610b6b565b5050565b600073ffffffffffffffffffffffffffffffffffffffff168273ffffffffffffffffffffffffffffffffffffffff16036104dc5760006040517f64a0ae920000000000000000000000000000000000000000000000000000000081526004016104d39190611b05565b60405180910390fd5b60006104f083836104eb610b63565b610b7d565b90508373ffffffffffffffffffffffffffffffffffffffff168173ffffffffffffffffffffffffffffffffffffffff1614610566578382826040517f64283d7b00000000000000000000000000000000000000000000000000000000815260040161055d93929190611ff7565b60405180910390fd5b50505050565b610587838383604051806020016040528060008152506107ca565b505050565b600061059782610a9e565b9050919050565b60008073ffffffffffffffffffffffffffffffffffffffff168273ffffffffffffffffffffffffffffffffffffffff16036106115760006040517f89c62b640000000000000000000000000000000000000000000000000000000081526004016106089190611b05565b60405180910390fd5b600360008373ffffffffffffffffffffffffffffffffffffffff1673ffffffffffffffffffffffffffffffffffffffff168152602001908152602001600020549050919050565b60075481565b60606001805461066d90611fc6565b80601f016020809104026020016040519081016040528092919081815260200182805461069990611fc6565b80156106e65780601f106106bb576101008083540402835291602001916106e6565b820191906000526020600020905b8154815290600101906020018083116106c957829003601f168201915b5050505050905090565b6107026106fb610b63565b8383610d97565b5050565b600860009054906101000a900473ffffffffffffffffffffffffffffffffffffffff1673ffffffffffffffffffffffffffffffffffffffff163373ffffffffffffffffffffffffffffffffffffffff1614610796576040517f08c379a000000000000000000000000000000000000000000000000000000000815260040161078d9061207a565b60405180910390fd5b6107a282600754610f06565b6107ae60075482610f24565b600760008154809291906107c1906120c9565b91905055505050565b6107d584848461046a565b6107e96107e0610b63565b85858585610f80565b50505050565b60606107fa82610a9e565b50600060066000848152602001908152602001600020805461081b90611fc6565b80601f016020809104026020016040519081016040528092919081815260200182805461084790611fc6565b80156108945780601f1061086957610100808354040283529160200191610894565b820191906000526020600020905b81548152906001019060200180831161087757829003601f168201915b5050505050905060006108a5611131565b905060008151036108ba5781925050506108fd565b6000825111156108ef5780826040516020016108d792919061214d565b604051602081830303815290604052925050506108fd565b6108f884611148565b925050505b919050565b6000600560008473ffffffffffffffffffffffffffffffffffffffff1673ffffffffffffffffffffffffffffffffffffffff16815260200190815260200160002060008373ffffffffffffffffffffffffffffffffffffffff1673ffffffffffffffffffffffffffffffffffffffff16815260200190815260200160002060009054906101000a900460ff16905092915050565b600860009054906101000a900473ffffffffffffffffffffffffffffffffffffffff1681565b60007f80ac58cd000000000000000000000000000000000000000000000000000000007bffffffffffffffffffffffffffffffffffffffffffffffffffffffff1916827bffffffffffffffffffffffffffffffffffffffffffffffffffffffff19161480610a8757507f5b5e139f000000000000000000000000000000000000000000000000000000007bffffffffffffffffffffffffffffffffffffffffffffffffffffffff1916827bffffffffffffffffffffffffffffffffffffffffffffffffffffffff1916145b80610a975750610a96826111b1565b5b9050919050565b600080610aaa8361121b565b9050600073ffffffffffffffffffffffffffffffffffffffff168173ffffffffffffffffffffffffffffffffffffffff1603610b1d57826040517f7e273289000000000000000000000000000000000000000000000000000000008152600401610b149190611c1b565b60405180910390fd5b80915050919050565b60006004600083815260200190815260200160002060009054906101000a900473ffffffffffffffffffffffffffffffffffffffff169050919050565b600033905090565b610b788383836001611258565b505050565b600080610b898461121b565b9050600073ffffffffffffffffffffffffffffffffffffffff168373ffffffffffffffffffffffffffffffffffffffff1614610bcb57610bca81848661141d565b5b600073ffffffffffffffffffffffffffffffffffffffff168173ffffffffffffffffffffffffffffffffffffffff1614610c5c57610c0d600085600080611258565b6001600360008373ffffffffffffffffffffffffffffffffffffffff1673ffffffffffffffffffffffffffffffffffffffff168152602001908152602001600020600082825403925050819055505b600073ffffffffffffffffffffffffffffffffffffffff168573ffffffffffffffffffffffffffffffffffffffff1614610cdf576001600360008773ffffffffffffffffffffffffffffffffffffffff1673ffffffffffffffffffffffffffffffffffffffff168152602001908152602001600020600082825401925050819055505b846002600086815260200190815260200160002060006101000a81548173ffffffffffffffffffffffffffffffffffffffff021916908373ffffffffffffffffffffffffffffffffffffffff160217905550838573ffffffffffffffffffffffffffffffffffffffff168273ffffffffffffffffffffffffffffffffffffffff167fddf252ad1be2c89b69c2b068fc378daa952ba7f163c4a11628f55a4df523b3ef60405160405180910390a4809150509392505050565b600073ffffffffffffffffffffffffffffffffffffffff168273ffffffffffffffffffffffffffffffffffffffff1603610e0857816040517f5b08ba18000000000000000000000000000000000000000000000000000000008152600401610dff9190611b05565b60405180910390fd5b80600560008573ffffffffffffffffffffffffffffffffffffffff1673ffffffffffffffffffffffffffffffffffffffff16815260200190815260200160002060008473ffffffffffffffffffffffffffffffffffffffff1673ffffffffffffffffffffffffffffffffffffffff16815260200190815260200160002060006101000a81548160ff0219169083151502179055508173ffffffffffffffffffffffffffffffffffffffff168373ffffffffffffffffffffffffffffffffffffffff167f17307eab39ab6107e8899845ad3d59bd9653f200f220920489ca2b5937696c3183604051610ef99190611994565b60405180910390a3505050565b610f208282604051806020016040528060008152506114e1565b5050565b80600660008481526020019081526020016000209081610f44919061231d565b507ff8e1a15aba9398e019f0b49df1a4fde98ee17ae345cb5f6b5e2c27f5033e8ce782604051610f749190611c1b565b60405180910390a15050565b60008373ffffffffffffffffffffffffffffffffffffffff163b111561112a578273ffffffffffffffffffffffffffffffffffffffff1663150b7a02868685856040518563ffffffff1660e01b8152600401610fdf9493929190612444565b6020604051808303816000875af192505050801561101b57506040513d601f19601f8201168201806040525081019061101891906124a5565b60015b61109f573d806000811461104b576040519150601f19603f3d011682016040523d82523d6000602084013e611050565b606091505b50600081510361109757836040517f64a0ae9200000000000000000000000000000000000000000000000000000000815260040161108e9190611b05565b60405180910390fd5b805181602001fd5b63150b7a0260e01b7bffffffffffffffffffffffffffffffffffffffffffffffffffffffff1916817bffffffffffffffffffffffffffffffffffffffffffffffffffffffff19161461112857836040517f64a0ae9200000000000000000000000000000000000000000000000000000000815260040161111f9190611b05565b60405180910390fd5b505b5050505050565b606060405180602001604052806000815250905090565b606061115382610a9e565b50600061115e611131565b9050600081511161117e57604051806020016040528060008152506111a9565b8061118884611505565b60405160200161119992919061214d565b6040516020818303038152906040525b915050919050565b60007f01ffc9a7000000000000000000000000000000000000000000000000000000007bffffffffffffffffffffffffffffffffffffffffffffffffffffffff1916827bffffffffffffffffffffffffffffffffffffffffffffffffffffffff1916149050919050565b60006002600083815260200190815260200160002060009054906101000a900473ffffffffffffffffffffffffffffffffffffffff169050919050565b80806112915750600073ffffffffffffffffffffffffffffffffffffffff168273ffffffffffffffffffffffffffffffffffffffff1614155b156113c55760006112a184610a9e565b9050600073ffffffffffffffffffffffffffffffffffffffff168373ffffffffffffffffffffffffffffffffffffffff161415801561130c57508273ffffffffffffffffffffffffffffffffffffffff168173ffffffffffffffffffffffffffffffffffffffff1614155b801561131f575061131d8184610902565b155b1561136157826040517fa9fbf51f0000000000000000000000000000000000000000000000000000000081526004016113589190611b05565b60405180910390fd5b81156113c357838573ffffffffffffffffffffffffffffffffffffffff168273ffffffffffffffffffffffffffffffffffffffff167f8c5be1e5ebec7d5bd14f71427d1e84f3dd0314c0f7b2291e5b200ac8c7c3b92560405160405180910390a45b505b836004600085815260200190815260200160002060006101000a81548173ffffffffffffffffffffffffffffffffffffffff021916908373ffffffffffffffffffffffffffffffffffffffff16021790555050505050565b6114288383836115d3565b6114dc57600073ffffffffffffffffffffffffffffffffffffffff168373ffffffffffffffffffffffffffffffffffffffff160361149d57806040517f7e2732890000000000000000000000000000000000000000000000000000000081526004016114949190611c1b565b60405180910390fd5b81816040517f177e802f0000000000000000000000000000000000000000000000000000000081526004016114d39291906124d2565b60405180910390fd5b505050565b6114eb8383611694565b6115006114f6610b63565b6000858585610f80565b505050565b6060600060016115148461178d565b01905060008167ffffffffffffffff81111561153357611532611cac565b5b6040519080825280601f01601f1916602001820160405280156115655781602001600182028036833780820191505090505b509050600082602001820190505b6001156115c8578080600190039150507f3031323334353637383961626364656600000000000000000000000000000000600a86061a8153600a85816115bc576115bb6124fb565b5b04945060008503611573575b819350505050919050565b60008073ffffffffffffffffffffffffffffffffffffffff168373ffffffffffffffffffffffffffffffffffffffff161415801561168b57508273ffffffffffffffffffffffffffffffffffffffff168473ffffffffffffffffffffffffffffffffffffffff16148061164c575061164b8484610902565b5b8061168a57508273ffffffffffffffffffffffffffffffffffffffff1661167283610b26565b73ffffffffffffffffffffffffffffffffffffffff16145b5b90509392505050565b600073ffffffffffffffffffffffffffffffffffffffff168273ffffffffffffffffffffffffffffffffffffffff16036117065760006040517f64a0ae920000000000000000000000000000000000000000000000000000000081526004016116fd9190611b05565b60405180910390fd5b600061171483836000610b7d565b9050600073ffffffffffffffffffffffffffffffffffffffff168173ffffffffffffffffffffffffffffffffffffffff16146117885760006040517f73c6ac6e00000000000000000000000000000000000000000000000000000000815260040161177f9190611b05565b60405180910390fd5b505050565b600080600090507a184f03e93ff9f4daa797ed6e38ed64bf6a1f01000000000000000083106117eb577a184f03e93ff9f4daa797ed6e38ed64bf6a1f01000000000000000083816117e1576117e06124fb565b5b0492506040810190505b6d04ee2d6d415b85acef81000000008310611828576d04ee2d6d415b85acef8100000000838161181e5761181d6124fb565b5b0492506020810190505b662386f26fc10000831061185757662386f26fc10000838161184d5761184c6124fb565b5b0492506010810190505b6305f5e1008310611880576305f5e1008381611876576118756124fb565b5b0492506008810190505b61271083106118a557612710838161189b5761189a6124fb565b5b0492506004810190505b606483106118c857606483816118be576118bd6124fb565b5b0492506002810190505b600a83106118d7576001810190505b80915050919050565b6000604051905090565b600080fd5b600080fd5b60007fffffffff0000000000000000000000000000000000000000000000000000000082169050919050565b611929816118f4565b811461193457600080fd5b50565b60008135905061194681611920565b92915050565b600060208284031215611962576119616118ea565b5b600061197084828501611937565b91505092915050565b60008115159050919050565b61198e81611979565b82525050565b60006020820190506119a96000830184611985565b92915050565b600081519050919050565b600082825260208201905092915050565b60005b838110156119e95780820151818401526020810190506119ce565b60008484015250505050565b6000601f19601f8301169050919050565b6000611a11826119af565b611a1b81856119ba565b9350611a2b8185602086016119cb565b611a34816119f5565b840191505092915050565b60006020820190508181036000830152611a598184611a06565b905092915050565b6000819050919050565b611a7481611a61565b8114611a7f57600080fd5b50565b600081359050611a9181611a6b565b92915050565b600060208284031215611aad57611aac6118ea565b5b6000611abb84828501611a82565b91505092915050565b600073ffffffffffffffffffffffffffffffffffffffff82169050919050565b6000611aef82611ac4565b9050919050565b611aff81611ae4565b82525050565b6000602082019050611b1a6000830184611af6565b92915050565b611b2981611ae4565b8114611b3457600080fd5b50565b600081359050611b4681611b20565b92915050565b60008060408385031215611b6357611b626118ea565b5b6000611b7185828601611b37565b9250506020611b8285828601611a82565b9150509250929050565b600080600060608486031215611ba557611ba46118ea565b5b6000611bb386828701611b37565b9350506020611bc486828701611b37565b9250506040611bd586828701611a82565b9150509250925092565b600060208284031215611bf557611bf46118ea565b5b6000611c0384828501611b37565b91505092915050565b611c1581611a61565b82525050565b6000602082019050611c306000830184611c0c565b92915050565b611c3f81611979565b8114611c4a57600080fd5b50565b600081359050611c5c81611c36565b92915050565b60008060408385031215611c7957611c786118ea565b5b6000611c8785828601611b37565b9250506020611c9885828601611c4d565b9150509250929050565b600080fd5b600080fd5b7f4e487b7100000000000000000000000000000000000000000000000000000000600052604160045260246000fd5b611ce4826119f5565b810181811067ffffffffffffffff82111715611d0357611d02611cac565b5b80604052505050565b6000611d166118e0565b9050611d228282611cdb565b919050565b600067ffffffffffffffff821115611d4257611d41611cac565b5b611d4b826119f5565b9050602081019050919050565b82818337600083830152505050565b6000611d7a611d7584611d27565b611d0c565b905082815260208101848484011115611d9657611d95611ca7565b5b611da1848285611d58565b509392505050565b600082601f830112611dbe57611dbd611ca2565b5b8135611dce848260208601611d67565b91505092915050565b60008060408385031215611dee57611ded6118ea565b5b6000611dfc85828601611b37565b925050602083013567ffffffffffffffff811115611e1d57611e1c6118ef565b5b611e2985828601611da9565b9150509250929050565b600067ffffffffffffffff821115611e4e57611e4d611cac565b5b611e57826119f5565b9050602081019050919050565b6000611e77611e7284611e33565b611d0c565b905082815260208101848484011115611e9357611e92611ca7565b5b611e9e848285611d58565b509392505050565b600082601f830112611ebb57611eba611ca2565b5b8135611ecb848260208601611e64565b91505092915050565b60008060008060808587031215611eee57611eed6118ea565b5b6000611efc87828801611b37565b9450506020611f0d87828801611b37565b9350506040611f1e87828801611a82565b925050606085013567ffffffffffffffff811115611f3f57611f3e6118ef565b5b611f4b87828801611ea6565b91505092959194509250565b60008060408385031215611f6e57611f6d6118ea565b5b6000611f7c85828601611b37565b9250506020611f8d85828601611b37565b9150509250929050565b7f4e487b7100000000000000000000000000000000000000000000000000000000600052602260045260246000fd5b60006002820490506001821680611fde57607f821691505b602082108103611ff157611ff0611f97565b5b50919050565b600060608201905061200c6000830186611af6565b6120196020830185611c0c565b6120266040830184611af6565b949350505050565b7f6f6e6c792061646d696e2063616e206d696e7400000000000000000000000000600082015250565b60006120646013836119ba565b915061206f8261202e565b602082019050919050565b6000602082019050818103600083015261209381612057565b9050919050565b7f4e487b7100000000000000000000000000000000000000000000000000000000600052601160045260246000fd5b60006120d482611a61565b91507fffffffffffffffffffffffffffffffffffffffffffffffffffffffffffffffff82036121065761210561209a565b5b600182019050919050565b600081905092915050565b6000612127826119af565b6121318185612111565b93506121418185602086016119cb565b80840191505092915050565b6000612159828561211c565b9150612165828461211c565b91508190509392505050565b60008190508160005260206000209050919050565b60006020601f8301049050919050565b600082821b905092915050565b6000600883026121d37fffffffffffffffffffffffffffffffffffffffffffffffffffffffffffffffff82612196565b6121dd8683612196565b95508019841693508086168417925050509392505050565b6000819050919050565b600061221a61221561221084611a61565b6121f5565b611a61565b9050919050565b6000819050919050565b612234836121ff565b61224861224082612221565b8484546121a3565b825550505050565b600090565b61225d612250565b61226881848461222b565b505050565b5b8181101561228c57612281600082612255565b60018101905061226e565b5050565b601f8211156122d1576122a281612171565b6122ab84612186565b810160208510156122ba578190505b6122ce6122c685612186565b83018261226d565b50505b505050565b600082821c905092915050565b60006122f4600019846008026122d6565b1980831691505092915050565b600061230d83836122e3565b9150826002028217905092915050565b612326826119af565b67ffffffffffffffff81111561233f5761233e611cac565b5b6123498254611fc6565b612354828285612290565b600060209050601f8311600181146123875760008415612375578287015190505b61237f8582612301565b8655506123e7565b601f19841661239586612171565b60005b828110156123bd57848901518255600182019150602085019450602081019050612398565b868310156123da57848901516123d6601f8916826122e3565b8355505b6001600288020188555050505b505050505050565b600081519050919050565b600082825260208201905092915050565b6000612416826123ef565b61242081856123fa565b93506124308185602086016119cb565b612439816119f5565b840191505092915050565b60006080820190506124596000830187611af6565b6124666020830186611af6565b6124736040830185611c0c565b8181036060830152612485818461240b565b905095945050505050565b60008151905061249f81611920565b92915050565b6000602082840312156124bb576124ba6118ea565b5b60006124c984828501612490565b91505092915050565b60006040820190506124e76000830185611af6565b6124f46020830184611c0c565b9392505050565b7f4e487b7100000000000000000000000000000000000000000000000000000000600052601260045260246000fdfea2646970667358221220b4cc431e54fb4a80d114bb65dd9975ff14e59a9848bcb6bd04b593f36003cb5764736f6c634300081c0033",
  "linkReferences": {},
  "deployedLinkReferences": {}
}